:100000000C9463000C948B000C948B000C943806B9
:100010000C9438060C9438060C948B000C948B00CE
:100020000C948B000C948B000C948B000C948B0024
:100030000C948B000C948B000C948B000C948B0014
:100040000C94EE050C948B000C94BC050C94960556
:100050000C948B000C948B000C948B000C948B00F4
:100060000C948B000C948B000000000024002700EF
:100070002A0000000008000201000003040700003D
:1000800000000000000000000000230026002900FE
:1000900000000000250028002B00040404040404D0
:1000A0000404020202020202030303030303010227
:1000B00004081020408001020408102001020408F6
:1000C0001020FC067B0911241FBECFEFD8E0DEBF55
:1000D000CDBF11E0A0E0B1E0E0ECF8E102C0059096
:1000E0000D92AA38B107D9F722E0AAE8B1E001C021
:1000F0001D92AD3AB207E1F710E0C2E6D0E004C0CD
:100100002197FE010E94210BC136D107C9F70E9439
:1001100005080C94530C0C9400008F929F92AF92A0
:10012000BF92CF92DF92EF92FF920F931F93FC0149
:100130004B01AA24BB24C52ED62EE72EFF24BC2DAE
:10014000A42F90917C02B82C992391F0A92FB0E0B4
:10015000A89D9001A99D300DB89D300D1124B32E9E
:100160009C9D60011124BD2D949F80011124A12F1D
:100170004091820220917D0230917E0280917F0227
:10018000481324C0CF01880F991F8E0F9F1F820F25
:10019000931FE0917F02E80FF92FF11DB082E091EB
:1001A0008002E80FF92FF11DB08320918102820FA8
:1001B000911DFC01A0831F910F91FF90EF90DF90A4
:1001C000CF90BF90AF909F908F900895CF01880FF0
:1001D000991F880F991F820F931FFC01E40FF11DD7
:1001E0001082D7CFAF92BF92CF92DF92EF92FF9261
:1001F0000F931F93CF93DF936C017B018B01040F4F
:10020000151FEB015E01AE18BF08C017D10759F0EA
:100210006991D601ED91FC910190F081E02DC6012C
:100220000995892B79F7C501DF91CF911F910F9126
:10023000FF90EF90DF90CF90BF90AF900895FC01BA
:10024000538D448D252F30E0842F90E0821B930B3B
:10025000541710F0CF96089501970895FC01918DE1
:10026000828D981761F0A28DAE0FBF2FB11D5D96E4
:100270008C91928D9F5F9F73928F90E008958FEF86
:100280009FEF0895FC01918D828D981731F0828D3A
:10029000E80FF11D858D90E008958FEF9FEF089591
:1002A000FC01918D228D892F90E0805C9F4F821BF5
:1002B00091098F739927089587ED91E00E9450016D
:1002C00021E0892B09F420E0822F089580E090E05E
:1002D000892B29F00E945C0181110C940000089583
:1002E000FC01A48DA80FB92FB11DA35ABF4F2C91AB
:1002F000848D90E001968F739927848FA689B789A2
:100300002C93A089B1898C91837080648C93938D98
:10031000848D981306C00288F389E02D80818F7D3B
:1003200080830895EF92FF920F931F93CF93DF93F3
:10033000EC0181E0888F9B8D8C8D98131AC0E88921
:10034000F989808185FF15C09FB7F894EE89FF89F0
:100350006083E889F98980818370806480839FBF8E
:1003600081E090E0DF91CF911F910F91FF90EF908E
:100370000895F62E0B8D10E00F5F1F4F0F7311279E
:10038000E02E8C8D8E110CC00FB607FCFACFE889D9
:10039000F989808185FFF5CFCE010E947001F1CFF0
:1003A000EB8DEC0FFD2FF11DE35AFF4FF0829FB74D
:1003B000F8940B8FEA89FB8980818062CFCFCF933D
:1003C000DF93EC01888D8823B9F0AA89BB89E8897D
:1003D000F9898C9185FD03C0808186FD0DC00FB623
:1003E00007FCF7CF8C9185FFF2CF808185FFEDCFA1
:1003F000CE010E947001E9CFDF91CF910895CF9394
:10040000DF9390E0FC01E255FF4F249186569F4F09
:10041000FC0184918823D1F090E0880F991FFC01A2
:10042000E859FF4FA591B491FC01E057FF4FC591EA
:10043000D49161110EC09FB7F8948C91E22FE09592
:100440008E238C932881E223E8839FBFDF91CF9195
:1004500008958FB7F894EC91E22BEC938FBFF6CF11
:100460003FB7F8948091CF019091D001A091D10134
:10047000B091D20126B5A89B05C02F3F19F0019677
:10048000A11DB11D3FBFBA2FA92F982F8827BC01EE
:10049000CD01620F711D811D911D42E0660F771F16
:1004A000881F991F4A95D1F708958F929F92AF9216
:1004B000BF92CF92DF92EF92FF924B015C010E94BC
:1004C00030026B017C010E9430026C197D098E099B
:1004D0009F09683E734081059105A8F321E0821AC7
:1004E0009108A108B10888EEC80E83E0D81EE11C6F
:1004F000F11C81149104A104B10429F7FF90EF903D
:10050000DF90CF90BF90AF909F908F9008952091F3
:10051000D5013091D6012817390771F49091D30194
:100520008091D401981741F0E091D301F0E0E657B3
:10053000FE4F808190E008958FEF9FEF089508951A
:10054000EF92FF920F931F93CF93DF93DC015C96A2
:10055000ED90FC905D97E114F10479F481E090E076
:1005600013969C938E93129790E080E0DF91CF9149
:100570001F910F91FF90EF9008955196ED91FC918E
:10058000529750968C915097982F90950FB75E96F2
:100590002C915E97122F127021FD6095F8942081A6
:1005A000112319F1282B2083E7012197F1F728E087
:1005B000462F50E0308160FF1AC0382B3083E701AE
:1005C0002197F1F7BA0175956795215089F71123A5
:1005D00081F08081892380830FBF5C968D919C91EF
:1005E0000197F1F781E090E0C1CF2923DCCF3923D7
:1005F000E5CF9081892BEFCF2091D5013091D601A5
:100600002817390771F48091D4012091D30190E02B
:10061000805C9F4F821B910960E470E00E94D70AC2
:10062000089590E080E008952091D5013091D601A1
:1006300028173907B9F49091D3018091D401981704
:1006400089F0E091D301F0E0E657FE4F80812091E0
:10065000D30130E02F5F3F4F2F7333272093D30117
:1006600090E008958FEF9FEF0895EF92FF920F9320
:100670001F93CF93DF93CDB7DEB72E970FB6F894C5
:10068000DEBF0FBECDBF1C861B8685E589878AEA43
:100690008A8782E08D8783E18B8784E18E878E0154
:1006A000075F1F4F7E018FE0E80EF11CF80161919A
:1006B0008F018AE892E00E94A0020E151F05B1F793
:1006C00066E470E080E090E00E9455028E010F5FCA
:1006D0001F4F8AE892E00E94FC02892B41F08AE8D1
:1006E00092E00E941403F80181938F01F2CF8E8172
:1006F0009F812885243180F0890F9927991F2E9694
:100700000FB6F894DEBF0FBECDBFDF91CF911F9122
:100710000F91FF90EF9008958EEF9FEFF0CF90E054
:1007200080E00895FC0101900020E9F73197AF01C6
:10073000481B590BBC0187ED91E00C94F2008F929D
:100740009F92AF92BF920F931F93CF93DF93CDB73A
:10075000DEB7A1970FB6F894DEBF0FBECDBF19A2CA
:10076000423008F44AE08E010F5D1F4F842E912C19
:10077000B12CA12CA50194010E94EB0AE62FB9012E
:10078000CA01EA30F4F4E05DD801EE938D01232B29
:10079000242B252B79F790E080E0109719F0CD01FC
:1007A0000E949203A1960FB6F894DEBF0FBECDBF94
:1007B000DF91CF911F910F91BF90AF909F908F903D
:1007C0000895E95CE1CFCF92DF92EF92FF92CF9351
:1007D000DF936B017C016DE287ED91E00E94920155
:1007E000EC0166277727CB016C197D098E099F09DB
:1007F0004AE00E949F038C0F9D1FDF91CF91FF90D5
:10080000EF90DF90CF900895CF93DF93BC01990FC5
:10081000880B990B97FF0CC00E94E303EC0180E763
:1008200091E00E9492038C0F9D1FDF91CF9108955C
:100830004AE00E949F03F2CF4F925F926F927F92A5
:100840008F929F92AF92BF92CF92DF92EF92FF92E0
:100850000F931F93CF93DF93CDB7DEB729970FB6D2
:10086000F894DEBF0FBECDBFC62E6AE070E00E94D6
:10087000D70A5B017C0121E0E21AF108072E000C87
:10088000880B990B4AE00E949F03C7010E94040451
:10089000409178025091790270E060E080917D0291
:1008A00090917E020E944C0C10E000E027E02A9D0F
:1008B000C0012B9D900D11249C012A5F3E4F4901E0
:1008C0004C2C512C712C612C3AE0532A632AB12C08
:1008D000A12CF801F595E795F595E795E80DF91D3B
:1008E000D080DD2071F0C501800F911F209176022C
:1008F000309177028217930720F4B301A2010E947E
:100900008D008FEFA81AB80A24E0A216B10449F7A7
:100910000C5F1F4F0C311105D1F627E02E9DC00151
:100920002F9D900D11249C012A5F3E4F5901D12C1F
:10093000F12CE12C3AE0D32AE32A912C812CF80106
:10094000F595E795F595E795EA0DFB1D7080772005
:1009500071F0C401800F911F2091760230917702CF
:100960008217930720F4B701A6010E948D008FEF34
:10097000881A980A24E08216910449F70C5F1F4FE9
:1009800008331105D1F680917D0290917E02892B6A
:1009900009F47CC00E94300200918302109184020D
:1009A00020918502309186026017710782079307B4
:1009B00040F4609383027093840280938502909345
:1009C0008602009183021091840220918502309169
:1009D0008602601B710B820B930B6C327140810598
:1009E0009105C0F2F89480917802909179029A83EF
:1009F0008983E0917D02F0917E02DF011196808172
:100A0000898790917402E0918702F0918802809129
:100A10008902992309F451C09081982B988790817D
:100A2000809589238F838F818C8388E08B83588581
:100A30006F8149853B812C8189819A81508347FD53
:100A4000252F3A952083262F39F0441F00C000003F
:100A50006083000000C0F2CF38E04D916083000059
:100A6000019761F7F0938802E093870249873B83FF
:100A70002C839A83898378940E9430026093830246
:100A800070938402809385029093860229960FB614
:100A9000F894DEBF0FBECDBFDF91CF911F910F91B4
:100AA000FF90EF90DF90CF90BF90AF909F908F908E
:100AB0007F906F905F904F9008959081982B9887CA
:100AC0009081809589238F838F818E8388E08D83A9
:100AD00058856F8149853D812E8189819A81508316
:100AE00047FD252F00C000C0208300C000C000C00B
:100AF00000C000C060830000262F3A9541F0441FDB
:100B0000000000C000C000C000C000C0E8CF38E056
:100B10004D9100C0608300C0019709F7F0938802EF
:100B2000E093870249873D832E83A3CF1F920F92C4
:100B30000FB60F9211242F933F934F935F936F93B0
:100B40007F938F939F93AF93BF93EF93FF9387ED23
:100B500091E00E947001FF91EF91BF91AF919F9141
:100B60008F917F916F915F914F913F912F910F9056
:100B70000FBE0F901F9018951F920F920FB60F92F5
:100B800011242F938F939F93EF93FF93E091E701AD
:100B9000F091E8018081E091ED01F091EE0182FD9C
:100BA0001BC090818091F0018F5F8F732091F101C4
:100BB000821741F0E091F001F0E0E952FE4F958F8D
:100BC0008093F001FF91EF919F918F912F910F9062
:100BD0000FBE0F901F9018958081F4CF1F920F9237
:100BE0000FB60F9211242F933F938F939F93AF9340
:100BF000BF938091CB019091CC01A091CD01B09198
:100C0000CE013091CA0123E0230F2D3758F501960C
:100C1000A11DB11D2093CA018093CB019093CC01FB
:100C2000A093CD01B093CE018091CF019091D001DE
:100C3000A091D101B091D2010196A11DB11D809367
:100C4000CF019093D001A093D101B093D201BF9175
:100C5000AF919F918F913F912F910F900FBE0F9069
:100C60001F90189526E8230F0296A11DB11DD2CF23
:100C70001F920F920FB60F9211242F933F934F9311
:100C80005F936F937F938F939F93AF93BF93EF93F4
:100C9000FF93E091D501F091D601309749F0A685F8
:100CA000B7858585968D91FF14C09C918923A1F409
:100CB000FF91EF91BF91AF919F918F917F916F9134
:100CC0005F914F913F912F910F900FBE0F901F900A
:100CD00018959C91892361F7A389B4899C91858992
:100CE000809589238C93868997890197F1F7608D88
:100CF000718DA685B785558538E020E0CB01019739
:100D0000F1F7822F90E095958795282F4C914523F8
:100D100009F02068315091F7868D81FD20958091F2
:100D2000D40190E001968F7399273091D301381741
:100D300099F0A091D401B0E0A657BE4F2C938093B8
:100D4000D401828D938D0197F1F7A389B4898C9199
:100D50009589892B8C93ACCF868D8160868FF1CF5E
:100D600090E0FC01EE58FF4F2491FC01E255FF4F4B
:100D70003491FC01E656FF4FE491EE23C9F02223A3
:100D800039F0233001F1A8F4213019F1223029F192
:100D9000F0E0EE0FFF1FE057FF4FA591B4918FB722
:100DA000F894EC91611126C030953E233C938FBF9F
:100DB00008952730A9F02830C9F0243049F78091F0
:100DC00080008F7D03C0809180008F7780938000AA
:100DD000DFCF84B58F7784BDDBCF84B58F7DFBCF2C
:100DE0008091B0008F778093B000D2CF8091B00017
:100DF0008F7DF9CF3E2BDACF1092DA011092D90114
:100E000088EE93E0A0E0B0E08093DB019093DC01FA
:100E1000A093DD01B093DE0120E531E03093D801ED
:100E20002093D70125EC30E03093E4012093E301D7
:100E300024EC30E03093E6012093E50120EC30E033
:100E40003093E8012093E70121EC30E03093EA0190
:100E50002093E90122EC30E03093EC012093EB0188
:100E600026EC30E03093EE012093ED011092F0017A
:100E70001092F1011092F2011092F30110928D0282
:100E800010928C0280938E0290938F02A093900216
:100E9000B093910282E691E090938B0280938A0254
:100EA0001092A1021092A0021092A3021092A2022C
:100EB0001092A5021092A4021092A7021092A6020C
:100EC0006091A8026E7F6D7F6093A8026695617045
:100ED00081E0682783E00E94B00661E083E00E9421
:100EE000FF01E1EBF0E0E491E0939A02EDE9F0E03C
:100EF000E491F0E0EE0FFF1FE057FF4F85919491D2
:100F000090939C0280939B0260E082E00E94FF012C
:100F10008091A80281FD04C061E082E00E94B006D9
:100F200092E090939602E0EBF0E0E491E093970278
:100F3000ECE9F0E0E491F0E0EE0FFF1FEA57FF4F1D
:100F40002591349130939902209398021092750262
:100F500010927C02109283021092840210928502F9
:100F60001092860281E08093820280937F02109229
:100F70008002909381028093740288EA90E09093BB
:100F80007902809378020E94270B90937E028093CF
:100F90007D02009789F128EAFC0111922A95E9F770
:100FA00088E390E090937702809376028AE090E065
:100FB00090937B0280937A0280917502882341F09E
:100FC00061E08AE00E94FF0160E08AE00E94B006D2
:100FD000E4EAF0E0E491F0E0EE0FFF1FE057FF4F8E
:100FE000859194919093880280938702E8EBF0E0DA
:100FF000E491E093890208951092790210927802A8
:101000001092770210927602D1CF789484B58260E4
:1010100084BD84B5816084BD85B5826085BD85B59C
:10102000816085BD80916E00816080936E0010921A
:101030008100809181008260809381008091810095
:101040008160809381008091800081608093800026
:101050008091B10084608093B1008091B000816084
:101060008093B00080917A00846080937A008091B0
:101070007A00826080937A0080917A008160809308
:101080007A0080917A00806880937A001092C10083
:1010900060E082E00E94FF0161E083E00E94FF01C6
:1010A00061E08AE00E94FF01E091E701F091E80130
:1010B00082E08083E091E301F091E4011082E0910D
:1010C000E501F091E60180E180831092EF01E0916B
:1010D000EB01F091EC0186E08083E091E901F09171
:1010E000EA01808180618083E091E901F091EA0169
:1010F000808188608083E091E901F091EA0180813C
:1011000080688083E091E901F091EA0180818F7D20
:1011100080831092A5021092A4021092A302109252
:10112000A2021092A1021092A0028DEC90E0909386
:10113000A7028093A60290919602963108F047C0CC
:1011400025E530E03093A1022093A0022BEC30E0A3
:101150003093A3022093A20220E930E03093A5024D
:101160002093A4022091680084E0983048F031E098
:101170009E3008F430E081E001C0880F3A95EAF72C
:10118000822B809368002DE630E0983050F02BE6FB
:1011900030E09E3030F02CE630E0963110F030E058
:1011A00020E030939E0220939D02292F30E098305A
:1011B00008F094C081E001C0880F9A95EAF7809307
:1011C0009F028091A6029091A7020197F1F780916A
:1011D000A4029091A502892B49F1E091D501F091EB
:1011E000D60182E0EA38F80709F1309739F0A3898F
:1011F000B4899C918589809589238C938091A802DC
:101200008E7F8093A8021092D4011092D3018AE8B5
:1012100092E09093D6018093D501E0919D02F091E8
:101220009E02808190919F02892B8083D0E0C0E054
:101230006AE0CE010E941C046EE170E080E090E064
:101240000E9455022196C436D10591F700E010E0C6
:101250000E943503EC0168EE73E080E090E00E94AC
:1012600055020E943503C81BD90BBE010D2E000C80
:10127000880B990B0E94DE092FE632E143E85AE31E
:101280000E94420A20E030E040E152E40E94420A1B
:101290000E94A6096B0183E791E00E949203CE01B0
:1012A0000E94040481E891E00E949203C6010E941A
:1012B0000404C601D7FE04C0882799278C199D090C
:1012C00060E00E941C040115110511F20E945C01EE
:1012D000882309F4BDCF0E940000BACF9E3040F4AD
:1012E0002850310981E001C0880F2A95EAF767CFBD
:1012F0002E503109F7CF80917D0290917E020E949D
:10130000C30B80917A0290917B0297FD03C060E04D
:101310000E94FF0182E691E090938B0280938A0203
:101320008091D5019091D6018A58924071F4E09154
:101330009D02F0919E02908180919F028095892369
:1013400080831092D6011092D50108950E94AD09B4
:101350006894B1110C943C0A08950E94210A88F007
:101360009F5798F0B92F9927B751B0F0E1F0660F69
:10137000771F881F991F1AF0BA95C9F714C0B130AA
:1013800091F00E943B0AB1E008950C943B0A672F4C
:10139000782F8827B85F39F0B93FCCF386957795D9
:1013A0006795B395D9F73EF49095809570956195C2
:1013B0007F4F8F4F9F4F0895E89409C097FB3EF4ED
:1013C00090958095709561957F4F8F4F9F4F992392
:1013D000A9F0F92F96E9BB279395F6958795779510
:1013E0006795B795F111F8CFFAF4BB0F11F460FFD0
:1013F0001BC06F5F7F4F8F4F9F4F16C0882311F028
:1014000096E911C0772321F09EE8872F762F05C03B
:10141000662371F096E8862F70E060E02AF09A95D6
:10142000660F771F881FDAF7880F9695879597F9CB
:10143000089557FD9058440F551F59F05F3F71F0C4
:101440004795880F97FB991F61F09F3F79F087952B
:101450000895121613061406551FF2CF4695F1DFB4
:1014600008C0161617061806991FF1CF8695710544
:10147000610508940895E894BB2766277727CB0178
:1014800097F908950E94550A0C94C60A0E94B80A5A
:1014900038F00E94BF0A20F0952311F00C94AF0A97
:1014A0000C94B50A11240C943C0A0E94190A70F39A
:1014B000959FC1F3950F50E0551F629FF001729FF9
:1014C000BB27F00DB11D639FAA27F00DB11DAA1F08
:1014D000649F6627B00DA11D661F829F2227B00D55
:1014E000A11D621F739FB00DA11D621F839FA00DE0
:1014F000611D221F749F3327A00D611D231F849F30
:10150000600D211D822F762F6A2F11249F57504086
:101510009AF0F1F088234AF0EE0FFF1FBB1F661F01
:10152000771F881F91505040A9F79E3F510580F0CA
:101530000C94AF0A0C943C0A5F3FE4F3983ED4F35A
:10154000869577956795B795F795E7959F5FC1F76E
:10155000FE2B880F911D9695879597F9089597F919
:101560009F6780E870E060E008959FEF80EC089549
:1015700000240A9416161706180609060895002472
:101580000A9412161306140605060895092E0394EC
:10159000000C11F4882352F0BB0F40F4BF2B11F460
:1015A00060FF04C06F5F7F4F8F4F9F4F089597FB81
:1015B000072E16F4009407D077FD09D00E940D0B7A
:1015C00007FC05D03EF4909581959F4F0895709546
:1015D00061957F4F0895A1E21A2EAA1BBB1BFD0146
:1015E0000DC0AA1FBB1FEE1FFF1FA217B307E40702
:1015F000F50720F0A21BB30BE40BF50B661F771F5A
:10160000881F991F1A9469F7609570958095909539
:101610009B01AC01BD01CF010895AA1BBB1B51E189
:1016200007C0AA1FBB1FA617B70710F0A61BB70B52
:10163000881F991F5A95A9F780959095BC01CD01F7
:101640000895EE0FFF1F0590F491E02D09940F937C
:101650001F93CF93DF938230910510F482E090E0E6
:10166000E091AB02F091AC0230E020E0B0E0A0E00D
:10167000309799F42115310509F44AC0281B390B1C
:1016800024303105D8F58A819B816115710589F176
:10169000FB0193838283FE0111C04081518102814D
:1016A000138148175907E0F04817590799F4109724
:1016B00061F012960C93129713961C933296CF01F9
:1016C000DF91CF911F910F9108950093AB0210937A
:1016D000AC02F4CF2115310551F04217530738F011
:1016E000A901DB019A01BD01DF01F801C1CFEF01C2
:1016F000F9CF9093AC028093AB02CDCFFE01E20F05
:10170000F31F819391932250310939832883D7CFD6
:101710002091A9023091AA02232B41F420910201C9
:10172000309103013093AA022093A9022091000175
:10173000309101012115310541F42DB73EB740919B
:10174000040150910501241B350BE091A902F09191
:10175000AA02E217F307A0F42E1B3F0B2817390744
:1017600078F0AC014E5F5F4F2417350748F04E0FFD
:101770005F1F5093AA024093A902819391939FCF38
:10178000F0E0E0E09CCFCF93DF930097E9F0FC011D
:10179000329713821282A091AB02B091AC02ED019C
:1017A00030E020E01097A1F420813181820F931F57
:1017B0002091A9023091AA022817390709F061C0C7
:1017C000F093AA02E093A902DF91CF910895EA0174
:1017D000CE17DF07E8F54A815B819E01411551056F
:1017E000B1F7E901FB83EA8349915991C40FD51FF1
:1017F000EC17FD0761F4808191810296840F951F9B
:10180000E90199838883828193819B838A83F0E0B5
:10181000E0E012968D919C9113970097B9F52D9168
:101820003C911197CD010296820F931F2091A9023E
:101830003091AA022817390739F6309751F51092DE
:10184000AC021092AB02B093AA02A093A902BCCF43
:10185000D383C28340815181840F951FC817D90754
:1018600061F44E5F5F4F88819981480F591F518302
:1018700040838A819B81938382832115310509F0FE
:10188000B0CFF093AC02E093AB029ECFFD01DC0140
:10189000C0CF13821282D7CFDC0101C06D934150BB
:1018A0005040E0F7089510E0C2E6D0E004C0FE0129
:1018B0000E94210B2196C336D107C9F7F894FFCFB8
:1018C0000000AD02800001010100010101000001E2
:1018D00000000001000101010101000001010100FF
:1018E00001010100010100000101010001000101ED
:1018F00001000001010101000101000000010101DE
:1019000001010101010101010100000100000000CD
:101910009201F2001F01DF0150012E01420100007F
:101920000000A002F2008F039F02FC021403870252
:101930000D0A00646966666572656E6365203D2008
:0A194000007370656564203A200012
:00000001FF
